:100000000C9435000C945D000C945D000C945D0024
:100010000C945D000C945D000C945D000C94DA036C
:100020000C945D000C945D000C945D000C945D00DC
:100030000C945D000C945D000C945D000C945D00CC
:100040000C94850A0C945D000C94E8060C94360719
:100050000C945D000C945D000C945D000C941B04EA
:100060000C945D000C945D00A20811241FBECFEF1C
:10007000D8E0DEBFCDBF11E0A0E0B1E0ECE1F9E1F6
:1000800002C005900D92AA3AB107D9F713E0AAEA87
:10009000B1E001C01D92A833B107E1F710E0CAE654
:1000A000D0E004C02297FE010E94510CC836D1074F
:1000B000C9F70E94F8080C948C0C0C940000CF93A4
:1000C000DF93BC018230910510F462E070E0A091F2
:1000D0003603B0913703ED01E0E0F0E040E050E09E
:1000E00021C0888199818617970769F48A819B814D
:1000F000309719F09383828304C0909337038093E1
:100100003603FE0134C06817790738F441155105EC
:1001100019F08417950708F4AC01FE018A819B81D0
:100120009C01E9012097E9F641155105A9F1CA01A1
:10013000861B970B049708F4BA01E0E0F0E02AC0B0
:100140008D919C91119784179507F9F464177507A1
:1001500081F412968D919C911397309719F09383A7
:10016000828304C09093370380933603FD01329657
:100170004CC0CA01861B970BFD01E80FF91F619364
:10018000719302978D939C9340C0FD01828193816E
:100190009C01D9011097A1F6809134039091350309
:1001A000892B41F480918C0190918D0190933503BE
:1001B0008093340340918E0150918F014115510578
:1001C00041F44DB75EB780918A0190918B01481B35
:1001D000590B2091340330913503CA01821B930BD4
:1001E0008617970780F0AB014E5F5F4F8417950726
:1001F00050F0420F531F5093350340933403F901DD
:100200006193719302C0E0E0F0E0CF01DF91CF9104
:100210000895CF93DF93009709F450C0EC01229723
:100220001B821A82A0913603B0913703109709F10F
:1002300040E050E0AC17BD0708F1BB83AA83FE0184
:1002400021913191E20FF31FAE17BF0779F48D9121
:100250009C911197280F391F2E5F3F4F39832883B8
:1002600012968D919C9113979B838A83411551051A
:1002700071F4D0933703C093360320C012968D914A
:100280009C911397AD01009711F0DC01D3CFFA01D7
:10029000D383C28321913191E20FF31FCE17DF0781
:1002A00069F488819981280F391F2E5F3F4FFA0129
:1002B000318320838A819B8193838283DF91CF91D5
:1002C0000895A0E0B0E0E7E6F1E00C94570C6C0173
:1002D000009729F4CB010E945F006C01C1C08EEF32
:1002E000882E8FEF982E8C0C9D1C8601060F171FF1
:1002F0000815190508F4B2C0F401A081B181A61750
:10030000B707B8F0A530B10508F4AAC0CD0104972D
:100310008617970708F4A4C01297A61BB70BF8011D
:10032000A193B193D4016D937C93CF010E940901F5
:1003300097C07B01EA1AFB0AEEEFFFEFEE0EFF1EFD
:1003400036016A0E7B1EC0913603D09137034424D8
:100350005524AA24BB244AC0C615D705E1F5488117
:1003600059814E155F05B8F1CA0104978E159F0596
:10037000B0F41296A40FB51FF401B183A0832A81B3
:100380003B814114510431F0D20113963C932E93DA
:10039000129766C0309337032093360361C08A8179
:1003A0009B81F80193838283425050404E195F092C
:1003B000518340834114510431F0D20113961C93B0
:1003C0000E93129704C01093370300933603F40181
:1003D0007183608345C088819981A816B90608F4A5
:1003E0005C012E018A819B819C01E901209709F023
:1003F000B3CF809134039091350386159705E9F4C6
:10040000A616B706D0F420918E0130918F012115E8
:10041000310541F42DB73EB780918A0190918B014F
:10042000281B390B02171307C8F4109335030093E8
:100430003403D4016D937C9313C0CB010E945F0001
:10044000EC01009759F0F40140815181B6010E94FE
:100450003602C6010E9409016E0102C0CC24DD24CF
:10046000C601CDB7DEB7E0E10C94730CFB01DC01F3
:1004700002C001900D9241505040D8F70895FB0101
:10048000DC018D91019080190110D9F3990B089529
:10049000FB01DC0101900D920020E1F7089589E055
:1004A00093E068E171E00E94720A08950F931F9330
:1004B000DF93CF93CDB7DEB727970FB6F894DEBFA3
:1004C0000FBECDBF89E093E00E94F807892B09F4A5
:1004D00041C089E093E00E942908982F8A30B9F141
:1004E0008D30B1F42091F601222391F08091F70133
:1004F000E82FF0E0EE50FE4F20831092F6018F5F60
:100500008093F701853008F4E8C01092F701E5C048
:10051000892F81538A3408F0E0C08091F601E09180
:10052000F701F0E0EE0FFF1F9F0153E0220F331F92
:100530005A95E1F7E20FF31FE80FF11DE655FE4F64
:1005400090838F5F8093F601833108F4C6C01092C8
:10055000F601C3C09091F8018091F701981709F452
:10056000AEC0892F90E0FC01EE50FE4F2081880F35
:10057000991FBC0133E0660F771F3A95E1F7680FCA
:10058000791FFB01E20FF11DE655FE4F1082665503
:100590007E4F8E010F5F1F4FC8010E94EE0BC801F6
:1005A00066E271E00E94620B882311F088E008C0C7
:1005B000C8016AE271E00E94620B882321F084E0A6
:1005C0008093FC016EC0C8016DE271E00E94620B75
:1005D000882311F087E0F4CFC80160E371E00E9446
:1005E000620B882319F5C80163E371E00E94620B76
:1005F000882319F01092FC0154C0C80166E371E031
:100600000E94620B882311F081E0DACFC8016AE30F
:1006100071E00E94620B882311F082E0D1CFC80103
:100620006EE371E00E94620B882311F083E0C8CF73
:100630008E010F5F1F4FC80162E471E00E94620BE0
:10064000882309F0BCCFC80166E471E00E94620B08
:10065000882311F085E0B4CFC8016AE471E00E94FC
:10066000620B882311F086E0ABCFC8016EE471E025
:100670000E94620B882311F083E611C0C80162E575
:1006800071E00E94620B882311F082E008C0C8016B
:1006900065E571E00E94620B882319F083E0809386
:1006A000FA018091F8018F5F8093F801853010F096
:1006B0001092F801CE0101960E94080C0EC08091A4
:1006C0005D02882351F00E944F0281E00E948D0656
:1006D00081E068EE73E00E949B068091FC01279602
:1006E0000FB6F894DEBF0FBECDBFCF91DF911F9143
:1006F0000F91089589E093E040E052EC61E070E0F2
:100700000E9471071092F6011092F7011092F80101
:100710001092FB011092FA011092FC011092FD015F
:100720001092F90181E068EE73E00E949B06089543
:100730008AB18F738AB98BB18F738BB983E0809341
:100740007F0088E080BF92E09093700086E98093FC
:10075000B3001092FF011092000210924B0210920F
:100760004A0281E0809348029093B1007894089502
:10077000809148028430E9F4A0910202A430B0F4E0
:10078000A150B0E0E091FF01F0E084E0EE0FFF1F28
:100790008A95E1F7EA0FFB1FE85FFD4FA057BE4FB8
:1007A0009C918081981711F01092FE0183E0809354
:1007B000480208951F920F920FB60F9211248F9343
:1007C0009F93EF93FF931092B1001092B20000B686
:1007D00005FE04C082E08093480224C081E080933B
:1007E00048028091FE018823E9F085E08093480269
:1007F0001092FE019091FF0180910202815080933E
:100800000202E92FF0E0EC5FFD4F80839F5F909341
:10081000FF01943011F41092FF011092B20082E0B7
:100820008093B100FF91EF919F918F910F900FBE38
:100830000F901F9018951F920F920FB60F921124D0
:100840008F939F93EF93FF939091B20000B605FEB4
:1008500006C01092B20082E08093B10040C0892FA0
:100860008D538B3050F481E08093FE011092010291
:10087000109202021092030232C0892F8A508F31E7
:1008800070F58091FE01882351F180910302880F59
:1008900080930302993118F4816080930302809160
:1008A00001028F5F809301028830C8F090910202AC
:1008B000E091FF01F0E084E0EE0FFF1F8A95E1F781
:1008C000E90FF11DE85FFD4F8091030280839F5F78
:1008D000909302021092010284E080934802FF91FB
:1008E000EF919F918F910F900FBE0F901F901895D1
:1008F0001F939C0180914802813009F085C010BE91
:100900001092B1001092B2001092B2005E9A5F98FD
:100910008AB1806C8AB910927F0082E08093B10026
:100920008091B2008034E0F38AB18F738AB98BB1C1
:100930008F738BB983E080937F008091B200823403
:10094000E0F300B605FE04C088E080BF70E059C047
:100950008091B2008036E0F3F90170E013E042C00C
:1009600080817F5F47E050E0A82FB0E0CD01042EEA
:1009700002C0959587950A94E2F780FD02C09EE13A
:1009800001C09EE05E9A5F988AB1806C8AB910922D
:100990007F001092B2008091B2009817E0F78AB100
:1009A0008F738AB98BB18F738BB910937F00292F06
:1009B00030E02E5F3F4F8091B20090E0281739075A
:1009C000D4F700B605FE03C088E080BF1AC080914E
:1009D000B2008033E0F3415050408FEF4F3F580753
:1009E00029F63196761709F0BBCF8091B200803995
:1009F000E0F388E080BF1092B20082E08093B10003
:100A0000762F872F1F910895FFCFFC012FEF50E025
:100A100021C0808140E830E0A82FB0E0842F90E032
:100A20008A239B23892B41F027FF02C081E001C06C
:100A30008CE1220F216006C027FF02C08DE101C0BA
:100A400080E0220F28273F5F383011F04695E6CF2F
:100A50005F5F31965617E8F2822F80950895809156
:100A60000002282F30E0F901EC5FFD4F80818730D4
:100A700019F020E030E02DC044E0220F331F4A95EA
:100A8000E1F7C901885F9D4F66E00E9405059091DE
:100A90000002E92FF0E0DF0124E0AA0FBB1F2A9536
:100AA000E1F7A85FBD4F16969C911697891719F02C
:100AB0002FEF3FEF0EC094E0EE0FFF1F9A95E1F786
:100AC000E45FFD4F908180E015962C9130E0282B5B
:100AD000392BC9010895BF92CF92DF92EF92FF9216
:100AE0000F931F93DF93CF93CDB7DEB727970FB642
:100AF000F894DEBF0FBECDBF082FDE011196E3E9EB
:100B0000F1E087E001900D928150E1F7FF2411E0C0
:100B100065E3E62E54E3B52E6E010894C11CD11C8A
:100B2000033611F4BD8205C0063511F00735F9F41E
:100B3000ED820E831C83C60166E00E9405058F834B
:100B4000C60168E00E947804883009F011508FE0F7
:100B5000F81669F065E070E080E090E00E94010B1B
:100B60001F5F143010F081E003C0F394D9CF80E010
:100B700027960FB6F894DEBF0FBECDBFCF91DF91A1
:100B80001F910F91FF90EF90DF90CF90BF9008954D
:100B9000FF920F931F93CF93DF93082F89E093E089
:100BA0006AE771E00E946F0AFF2410E0E801CC5F61
:100BB000DD4F74E0000F111F7A95E1F713C0F801C3
:100BC000EF0DF11DE85FFD4F89E093E060814AE0A1
:100BD00050E00E94E00989E093E067E871E00E943C
:100BE0006F0AF3948881F81650F389E093E069E87E
:100BF00071E00E94720A89E093E068814AE050E067
:100C00000E94F209DF91CF911F910F91FF900895FB
:100C10009091480280914902981731F00E94B803E0
:100C2000809148028093490280910202803110F045
:100C3000109202029091FF0180910002981799F0A2
:100C40000E942F0590934B0280934A0280910002EC
:100C50000E94C805809100028F5F8093000284305B
:100C600010F01092000208950E94B8060E94080633
:100C70000E94560280934D0260914A0270914B028D
:100C80001616170654F489E093E04AE050E00E94FB
:100C9000500A10924B0210924A0280914A0290919F
:100CA0004B028356954309F42D9A8091660288235E
:100CB00039F082E00E948D0683E60E946B052D9A32
:100CC00090914D02943020F480917002882311F0AD
:100CD000529A01C0529880914E02981711F0909349
:100CE0004E020895259A85B115B88AB1837F8AB9D5
:100CF0005B9A5A980E9498030E947A0382E060E906
:100D000071E00E949B0684E06CE271E00E949B0609
:100D100010924C0210924F02089590E0FC0123E0E3
:100D2000EE0FFF1F2A95E1F7E80FF91FEC5AFD4F70
:100D30001182108208950F931F9390E08C0133E08D
:100D4000000F111F3A95E1F7080F191F0C5A1D4F9C
:100D500081E0F80181831082708767830E94CD0A49
:100D6000F80163837483858396831F910F9108959F
:100D70001F93CF93DF93C4E5D2E011E089818823EC
:100D8000E9F00E94CD0A6093500270935102809363
:100D90005202909353022B813C814D815E81621BF4
:100DA000730B840B950B2F81388540E050E026179C
:100DB00037074807590710F419821883299682E0EB
:100DC000C138D807D9F6DF91CF911F9108950895C2
:100DD0001F920F920FB60F9211242F933F934F93B0
:100DE0008F939F93EF93FF938091C00082FD1DC06E
:100DF0004091C6002091C1023091C2022F5F3F4F47
:100E00002F7330708091C3029091C4022817390764
:100E100071F0E091C102F091C202EF57FD4F4083A3
:100E20003093C2022093C10202C08091C600FF919C
:100E3000EF919F918F914F913F912F910F900FBE06
:100E40000F901F901895E0911503F0911603E05C48
:100E5000FF4F8191919120813181821B930B8F7380
:100E60009070892B11F00E94E70608951F920F924F
:100E70000FB60F9211242F933F938F939F93EF936D
:100E8000FF93209105033091060380910703909111
:100E900008032817390731F48091C1008F7D8093B2
:100EA000C10014C0E0910703F0910803EB53FD4F1C
:100EB0002081809107039091080301968F739070B1
:100EC00090930803809307032093C600FF91EF914E
:100ED0009F918F913F912F910F900FBE0F901F9078
:100EE0001895AF92BF92DF92EF92FF920F931F93EC
:100EF000CF93DF93EC017A018B01DD24403081EE4A
:100F0000580780E0680780E0780711F0DD24D3946B
:100F100091E0A92EB12CEC89FD89DD2069F0C50195
:100F200008A002C0880F991F0A94E2F7808360E04E
:100F300079E08DE390E005C0108260E874E88EE10E
:100F400090E0A80197010E942D0C215030404040B4
:100F50005040569547953795279580E120303807C2
:100F600020F0DD2011F0DD24D6CFE889F989308327
:100F7000EA89FB89208319A2EE89FF89408121E05B
:100F800030E0C9010C8C02C0880F991F0A94E2F767
:100F9000482B4083EE89FF894081C9010D8C02C036
:100FA000880F991F0A94E2F7482B4083EE89FF8946
:100FB0004081C9010E8C02C0880F991F0A94E2F784
:100FC000482B4083EE89FF8980810F8C02C0220F5D
:100FD000331F0A94E2F7209528232083DF91CF91D5
:100FE0001F910F91FF90EF90DF90BF90AF90089509
:100FF000DC011C96ED91FC911D97E05CFF4F219167
:10100000319180819181281B390B2F733070C90178
:101010000895DC011C96ED91FC911D97E05CFF4F5B
:1010200020813181E054F040DF01AE5BBF4F8D91F4
:101030009C9111972817390719F42FEF3FEF07C03C
:101040008D919C91E80FF91F8081282F30E0C90114
:101050000895DC011C96ED91FC911D97E05CFF4F1B
:1010600020813181E054F040DF01AE5BBF4F8D91B4
:101070009C9111972817390719F42FEF3FEF10C0F3
:101080008D919C911197E80FF91F20818D919C9172
:10109000119701968F73907011969C938E9330E008
:1010A000C9010895DC0191968C919197882339F0BC
:1010B0005496ED91FC915597808186FFF9CF9196DA
:1010C0001C920895CF93DF93EC01EE85FF85E05CE1
:1010D000FF4F20813181E054F0402F5F3F4F2F734D
:1010E0003070DF01AE5BBF4F8D919C911197281737
:1010F0003907D1F3E05CFF4F80819181E054F040EB
:10110000E80FF91F6083EE85FF85E05CFF4F3183B8
:101110002083EE89FF89208181E090E00F8C02C05E
:10112000880F991F0A94E2F7282B208381E089A376
:10113000EC89FD8980818064808381E090E0DF918B
:10114000CF91089510920C0310920B0388EE93E058
:10115000A0E0B0E080930D0390930E03A0930F03E3
:10116000B09310038EE991E090930A0380930903F2
:1011700081E892E0909316038093150385EC92E04A
:10118000909318038093170385EC90E090931A03D3
:101190008093190384EC90E090931C0380931B03CD
:1011A00080EC90E090931E0380931D0381EC90E00F
:1011B0009093200380931F0382EC90E0909322038E
:1011C0008093210386EC90E0909324038093230383
:1011D00084E08093250383E08093260387E0809357
:1011E000270385E08093280381E0809329030895F5
:1011F000CF93DF930E94270B0E947206C3E2D7E0D1
:101200000E9434062097E1F30E942307F9CFCF9282
:10121000DF92EF92FF920F931F93CF93DF937C01A6
:101220006B018A01C0E0D0E00FC0D6016D916D0165
:10123000D701ED91FC910190F081E02DC701099556
:10124000C80FD91F015010400115110571F7CE01CB
:10125000DF91CF911F910F91FF90EF90DF90CF9092
:101260000895EF92FF920F931F938C01DC01ED9193
:10127000FC910190F081E02D6DE009957C01D80191
:10128000ED91FC910190F081E02DC8016AE0099593
:101290009C012E0D3F1DC9011F910F91FF90EF90F2
:1012A0000895CF93DF93EC016115710519F420E0E7
:1012B00030E00FC0DB010D900020E9F71197A61B6D
:1012C000B70BE881F9810280F381E02DAD0109952A
:1012D0009C01C901DF91CF9108954F925F927F9257
:1012E0008F929F92AF92BF92CF92DF92EF92FF9236
:1012F0000F931F93DF93CF93CDB7DEB7A1970FB6B0
:10130000F894DEBF0FBECDBF2C01742ECB0122306E
:1013100008F42AE019A231E2C32ED12CCC0EDD1E36
:10132000822E9924AA24BB24672D752FA501940130
:101330000E942D0C79018A01C801B701A501940111
:101340000E940E0C472D461B0894C108D1084A3054
:1013500014F4405D01C0495CF6014083E114F104DE
:101360000105110521F07E2C5F2DC801DDCFC201E2
:10137000B6010E945109A1960FB6F894DEBF0FBEC8
:10138000CDBFCF91DF911F910F91FF90EF90DF9034
:10139000CF90BF90AF909F908F907F905F904F9035
:1013A0000895DC012115310541F4ED91FC91019086
:1013B000F081E02D642F099508950E946D0908952C
:1013C000EF92FF920F931F939A01E62EFF2400E005
:1013D00010E0B801A7010E94D1091F910F91FF9061
:1013E000EF900895CF92DF92EF92FF920F931F93A9
:1013F0006C01E62E9A01FF2400E010E0B801A7017D
:101400000E94D1098C01C6010E943109080F191FE1
:10141000C8011F910F91FF90EF90DF90CF9008953A
:10142000CF92DF92EF92FF920F931F93CF93DF93B0
:10143000EC016A017B012115310541F4E881F98154
:101440000190F081E02D642F09951FC02A303105ED
:10145000D1F477FF17C0E881F9810190F081E02D88
:101460006DE209958C0144275527BA014C195D0995
:101470006E097F09CE012AE00E946D099801280FAC
:10148000391F04C02AE00E946D099C01C901DF9147
:10149000CF911F910F91FF90EF90DF90CF90089523
:1014A000CF92DF92EF92FF920F931F936C017B011B
:1014B0009A010027F7FC0095102FB801A7010E94A0
:1014C000100A8C01C6010E943109080F191FC801BA
:1014D0001F910F91FF90EF90DF90CF9008950E94A1
:1014E00051090895EF92FF920F931F937C010E9480
:1014F00051098C01C7010E943109080F191FC80149
:101500001F910F91FF90EF9008951F920F920FB6C9
:101510000F9211242F933F938F939F93AF93BF9379
:1015200080912F0390913003A0913103B091320349
:10153000309133030196A11DB11D232F2D5F2D374F
:1015400020F02D570196A11DB11D209333038093E8
:101550002F0390933003A0933103B0933203809113
:101560002B0390912C03A0912D03B0912E03019693
:10157000A11DB11D80932B0390932C03A0932D03E9
:10158000B0932E03BF91AF919F918F913F912F9177
:101590000F900FBE0F901F9018958FB7F894209161
:1015A0002F033091300340913103509132038FBFAC
:1015B000B901CA0108959FB7F89420912B03309187
:1015C0002C0340912D0350912E0386B5A89B06C095
:1015D0008F3F21F02F5F3F4F4F4F5F4F9FBF542FE3
:1015E000432F322F2227280F311D411D511D82E02C
:1015F000220F331F441F551F8A95D1F7B901CA0125
:101600000895EF92FF920F931F93CF93DF937B0187
:101610008C010E94DB0AEB010EC00E94DB0A6C1BEE
:101620007D0B685E7340C8F30894E108F108010976
:101630001109C851DC4FE114F1040105110569F7E6
:10164000DF91CF911F910F91FF90EF9008957894C3
:1016500084B5826084BD84B5816084BD85B58260B7
:1016600085BD85B5816085BDEEE6F0E08081816055
:101670008083E1E8F0E01082808182608083808155
:1016800081608083E0E8F0E0808181608083E1EB2D
:10169000F0E0808184608083E0EBF0E08081816015
:1016A0008083EAE7F0E080818460808380818260CB
:1016B00080838081816080838081806880831092B4
:1016C000C1000895DC01FB0114968D919C91159742
:1016D000892B31F461157105A9F090E0808108C073
:1016E0000D90BC91A02D6115710529F490E08C91AD
:1016F000882349F407C0CD010E943F029C0190E07D
:10170000232B09F491E0892F08950F931F93CF9312
:10171000DF93EC018B016F5F7F4F888199810E947D
:101720006101009711F480E005C0998388831B83D1
:101730000A8381E0DF91CF911F910F910895CF939C
:10174000DF93EC0188819981892B29F08A819B8123
:101750008617970760F4CE010E94850B882341F01D
:101760008C819D81892B19F4E881F981108281E0B7
:10177000DF91CF910895CF93DF93EC018881998118
:10178000009711F00E940901198218821D821C82A3
:101790001B821A82DF91CF910895EF92FF920F93EF
:1017A0001F93CF93DF93EC017B018A01BA010E9462
:1017B0009F0B882321F4CE010E94BB0B07C01D8321
:1017C0000C8388819981B7010E944802CE01DF9184
:1017D000CF911F910F91FF90EF900895CF93DF93DA
:1017E000EC01198218821B821A821D821C821E82C1
:1017F0006115710551F0DB010D900020E9F711979B
:10180000A61BB70BAD010E94CD0BDF91CF910895C0
:10181000FC01808191810E9409010895629FD0019D
:10182000739FF001829FE00DF11D649FE00DF11D9B
:10183000929FF00D839FF00D749FF00D659FF00D4A
:101840009927729FB00DE11DF91F639FB00DE11D37
:10185000F91FBD01CF0111240895A1E21A2EAA1B80
:10186000BB1BFD010DC0AA1FBB1FEE1FFF1FA21750
:10187000B307E407F50720F0A21BB30BE40BF50B4D
:10188000661F771F881F991F1A9469F760957095D6
:10189000809590959B01AC01BD01CF010895EE0F9D
:1018A000FF1F0590F491E02D09942F923F924F92E3
:1018B0005F926F927F928F929F92AF92BF92CF92E0
:1018C000DF92EF92FF920F931F93CF93DF93CDB7E9
:1018D000DEB7CA1BDB0B0FB6F894DEBF0FBECDBF61
:1018E00009942A88398848885F846E847D848C8432
:1018F0009B84AA84B984C884DF80EE80FD800C813B
:101900001B81AA81B981CE0FD11D0FB6F894DEBF1D
:0C1910000FBECDBFED010895F894FFCF8D
:10191C00415423434600415423434700415423433D
:10192C00450041542343480041542343590041543A
:10193C002343572B37004E554D0049430049460071
:10194C004956004941004D4731004D4732004D4743
:10195C0033004D4734004D4735004D473600455256
:10196C005200494900494A32003931373630333058
:10197C00313737003930323335353231393300397C
:10198C00303030303030303030005263762050619F
:10199C00636B65743A2000200000200038030000BF
:1019AC006400286400280134638D00000000620884
:0A19BC000709F80729080908520876
:00000001FF
