:100000000C9435000C945D000C945D000C945D0024
:100010000C945D000C945D000C945D000C948400C5
:100020000C945D000C945D000C945D000C94350301
:100030000C945D000C945D000C945D000C945D00CC
:100040000C942D070C945D000C9490030C94DE032B
:100050000C945D000C945D000C945D000C94C20047
:100060000C945D000C945D004A0511241FBECFEF77
:10007000D8E0DEBFCDBF11E0A0E0B1E0E6EAF0E1FC
:1000800002C005900D92AC36B107D9F712E0ACE68C
:10009000B1E001C01D92A83CB107E1F710E0CAE64B
:1000A000D0E004C02297FE010E944D08C836D10757
:1000B000C9F70E94A0050C9451080C94000080918F
:1000C000DE01843001F5A0917001A430C8F4A15084
:1000D000B0E080916D0190E0FC0124E0EE0FFF1F85
:1000E0002A95E1F7E80FF91FEA0FFB1FE858FE4FCA
:1000F000A85ABE4F9C918081981711F010926C0104
:1001000083E08093DE0108951F920F920FB60F9245
:1001100011248F939F93EF93FF931092B10010924D
:10012000B20000B605FE04C082E08093DE0121C06B
:1001300081E08093DE0180916C018823D1F085E01D
:100140008093DE0110926C0190916D01E92FF0E037
:10015000EE58FE4F8091700180839F5F90936D01F8
:10016000963011F410926D011092B20082E08093EB
:10017000B100FF91EF919F918F910F900FBE0F9063
:100180001F9018951F920F920FB60F9211242F9364
:100190008F939F93EF93FF939091B20000B605FE6B
:1001A00006C01092B20082E08093B10044C0892F53
:1001B0008D538B3050F481E080936C0110926F016D
:1001C000109270011092710136C0892F8A508F31C0
:1001D00090F580916C01882371F180917101880FF5
:1001E00080937101993118F481608093710180913D
:1001F0006F018F5F80936F018830E8F0209170016C
:1002000080916D0190E0FC01E295F295F07FFE2770
:10021000E07FFE27E80FF91FE20FF11DE858FE4FBF
:100220008091710180832F5F2093700110926F0184
:1002300084E08093DE01FF91EF919F918F912F9148
:100240000F900FBE0F901F901895FC012FEF50E0FC
:1002500021C0808140E830E0A82FB0E0842F90E0FA
:100260008A239B23892B41F027FF02C081E001C034
:100270008CE1220F216006C027FF02C08DE101C082
:1002800080E0220F28273F5F383011F04695E6CFF7
:100290005F5F31965617E8F2822F8095089580911E
:1002A0006E0121E1829FC001112488589E4F66E0B3
:1002B0000E94250120916E0130E0F90144E0EE0F2B
:1002C000FF1F4A95E1F7E20FF31FE858FE4F9681B2
:1002D0008917B9F0CF0168E00E94250120916E01D5
:1002E00030E0F90194E0EE0FFF1F9A95E1F7E20F7D
:1002F000F31FE858FE4F9085891719F02FEF3FEF55
:1003000006C0948180E0258130E0282B392BC9017B
:1003100008950F931F930DE912E0C80140E052ECDD
:1003200061E070E00E941904C80160E171E00E9480
:100330001A078AB18F738AB98BB18F738BB983E037
:1003400080937F0088E080BF92E09093700086E900
:100350008093B30010926D0110926E011092E10132
:100360001092E00181E08093DE019093B1007894D7
:100370001F910F910895CF92DF92FF920F931F93D9
:10038000CF93DF93082F8DE992E06EE271E00E9437
:100390001707FF2410E062E7C62E61E0D62EC00EDC
:1003A000D11EE80154E0CC0FDD1F5A95E1F7C00FD4
:1003B000D11F13C0FE01EF0DF11DE858FE4F8DE96E
:1003C00092E060814AE050E00E9488068DE992E068
:1003D0006BE371E00E941707F394F6018081F81631
:1003E00048F38DE992E06DE371E00E941A078DE910
:1003F00092E0F60160814AE050E00E949A06DF91A7
:10040000CF911F910F91FF90DF90CF900895909121
:10041000DE018091DF01981771F091FF06C08DE930
:1004200092E06EE371E00E941A070E945F008091E3
:10043000DE018093DF0180917001813110F0109214
:10044000700190916D0180916E01981771F10E9479
:100450004F019093E1018093E00180916E010E9431
:10046000BB018091E0019091E10118161906A4F4F6
:100470008DE992E06CE471E00E9417076091E00161
:100480007091E1018DE992E04AE050E00E94F806A7
:1004900080916E010E94BB0180916E018F5F8093FD
:1004A0006E01863010F010926E01089580910C025A
:1004B000882339F084E00E9427031092E101109212
:1004C000E0012091E0013091E101121613066CF475
:1004D00080910D02882349F43093E3012093E201D7
:1004E00084E068E770E00E9443038091E20190910C
:1004F000E301009709F48BC025E38C35920721F0C6
:1005000024E38C35920749F45A9A6CE271E080E05A
:1005100090E00E94A9075A9876C025E38435920797
:1005200021F02AE38130920749F45C9A64E670E096
:1005300080E090E00E94A9075C9865C024E38336C0
:10054000920749F45B9A6CE271E080E090E00E94CF
:10055000A9075B9858C025E38535920721F02AE367
:100560008F3F920749F45D9A64E670E080E090E086
:100570000E94A9075D9847C024E38B33920749F492
:10058000289A6CE271E080E090E00E94A907289828
:100590003AC025E38635920721F024E3813492079F
:1005A00049F4299A6CE271E080E090E00E94A9078A
:1005B000299829C025E38735920721F024E3853463
:1005C000920749F42A9A6CE271E080E090E00E9480
:1005D000A9072A9818C024E38833920749F42C9A73
:1005E0006CE271E080E090E00E94A9072C980BC0BB
:1005F0008753944341F42B9A6CE271E080E090E0E1
:100600000E94A9072B981092E3011092E20108952D
:100610000E9460030E9407020E94560208958AB158
:100620008C638AB984B18FEF84B90E94890160ED2F
:1006300077E080E090E00E94A90784E068E770E03E
:100640000E9443031092E3011092E201089590E0AA
:10065000FC0123E0EE0FFF1F2A95E1F7E80FF91FD9
:10066000E851FE4F1182108208951F920F920FB62B
:100670000F92112410928500109284000F900FBEEB
:100680000F901F9018950F931F9390E08C0133E00B
:10069000000F111F3A95E1F7080F191F08511E4F5F
:1006A00081E0F80181831082708767830E9475075B
:1006B000F80163837483858396831F910F91089556
:1006C0001F93CF93DF93C8EED1E011E08981882397
:1006D000E9F00E9475076093E4017093E50180934F
:1006E000E6019093E7012B813C814D815E81621B85
:1006F000730B840B950B2F81388540E050E0261753
:1007000037074807590710F419821883299682E0A1
:10071000C531D807D9F6DF91CF911F91089508957B
:100720001F920F920FB60F9211242F933F934F9366
:100730008F939F93EF93FF938091C00082FD1DC024
:100740004091C60020915502309156022F5F3F4FD5
:100750002F733070809157029091580228173907F3
:1007600071F0E0915502F0915602EB5EFD4F40832F
:10077000309356022093550202C08091C600FF912B
:10078000EF919F918F914F913F912F910F900FBEBD
:100790000F901F901895E091A902F091AA02E05CD9
:1007A000FF4F8191919120813181821B930B8F7337
:1007B0009070892B11F00E948F0308951F920F9261
:1007C0000FB60F9211242F933F938F939F93EF9324
:1007D000FF932091990230919A0280919B0290910F
:1007E0009C022817390731F48091C1008F7D8093D6
:1007F000C10014C0E0919B02F0919C02E75AFD4FAA
:10080000208180919B0290919C0201968F73907041
:1008100090939C0280939B022093C600FF91EF91DE
:100820009F918F913F912F910F900FBE0F901F902E
:100830001895AF92BF92DF92EF92FF920F931F93A2
:10084000CF93DF93EC017A018B01DD24403081EE00
:10085000580780E0680780E0780711F0DD24D39422
:1008600091E0A92EB12CEC89FD89DD2069F0C5014C
:1008700008A002C0880F991F0A94E2F7808360E005
:1008800079E08DE390E005C0108260E874E88EE1C5
:1008900090E0A80197010E94290821503040404073
:1008A0005040569547953795279580E12030380779
:1008B00020F0DD2011F0DD24D6CFE889F9893083DE
:1008C000EA89FB89208319A2EE89FF89408121E012
:1008D00030E0C9010C8C02C0880F991F0A94E2F71E
:1008E000482B4083EE89FF894081C9010D8C02C0ED
:1008F000880F991F0A94E2F7482B4083EE89FF89FD
:100900004081C9010E8C02C0880F991F0A94E2F73A
:10091000482B4083EE89FF8980810F8C02C0220F13
:10092000331F0A94E2F7209528232083DF91CF918B
:100930001F910F91FF90EF90DF90BF90AF900895BF
:10094000DC011C96ED91FC911D97E05CFF4F21911D
:10095000319180819181281B390B2F733070C9012F
:100960000895DC011C96ED91FC911D97E05CFF4F12
:1009700020813181E054F040DF01AE5BBF4F8D91AB
:100980009C9111972817390719F42FEF3FEF07C0F3
:100990008D919C91E80FF91F8081282F30E0C901CB
:1009A0000895DC011C96ED91FC911D97E05CFF4FD2
:1009B00020813181E054F040DF01AE5BBF4F8D916B
:1009C0009C9111972817390719F42FEF3FEF10C0AA
:1009D0008D919C911197E80FF91F20818D919C9129
:1009E000119701968F73907011969C938E9330E0BF
:1009F000C9010895DC0191968C919197882339F073
:100A00005496ED91FC915597808186FFF9CF919690
:100A10001C920895CF93DF93EC01EE85FF85E05C97
:100A2000FF4F20813181E054F0402F5F3F4F2F7303
:100A30003070DF01AE5BBF4F8D919C9111972817ED
:100A40003907D1F3E05CFF4F80819181E054F040A1
:100A5000E80FF91F6083EE85FF85E05CFF4F31836F
:100A60002083EE89FF89208181E090E00F8C02C015
:100A7000880F991F0A94E2F7282B208381E089A32D
:100A8000EC89FD8980818064808381E090E0DF9142
:100A9000CF9108951092A00210929F0288EE93E0E9
:100AA000A0E0B0E08093A1029093A202A093A302E1
:100AB000B093A4028FE591E090939E0280939D02F3
:100AC00085E192E09093AA028093A90289E592E0E1
:100AD0009093AC028093AB0285EC90E09093AE02D1
:100AE0008093AD0284EC90E09093B0028093AF02CB
:100AF00080EC90E09093B2028093B10281EC90E0A0
:100B00009093B4028093B30282EC90E09093B6028B
:100B10008093B50286EC90E09093B8028093B70280
:100B200084E08093B90283E08093BA0287E08093E7
:100B3000BB0285E08093BC0281E08093BD020895F2
:100B4000CF93DF930E94CF070E940F03CBECD3E03B
:100B50000E9408032097E1F30E94CB03F9CFCF92C4
:100B6000DF92EF92FF920F931F93CF93DF937C015D
:100B70006B018A01C0E0D0E00FC0D6016D916D011C
:100B8000D701ED91FC910190F081E02DC70109950D
:100B9000C80FD91F015010400115110571F7CE0182
:100BA000DF91CF911F910F91FF90EF90DF90CF9049
:100BB0000895EF92FF920F931F938C01DC01ED914A
:100BC000FC910190F081E02D6DE009957C01D80148
:100BD000ED91FC910190F081E02DC8016AE009954A
:100BE0009C012E0D3F1DC9011F910F91FF90EF90A9
:100BF0000895CF93DF93EC016115710519F420E09E
:100C000030E00FC0DB010D900020E9F71197A61B23
:100C1000B70BE881F9810280F381E02DAD010995E0
:100C20009C01C901DF91CF9108954F925F927F920D
:100C30008F929F92AF92BF92CF92DF92EF92FF92EC
:100C40000F931F93DF93CF93CDB7DEB7A1970FB666
:100C5000F894DEBF0FBECDBF2C01742ECB01223025
:100C600008F42AE019A231E2C32ED12CCC0EDD1EED
:100C7000822E9924AA24BB24672D752FA5019401E7
:100C80000E94290879018A01C801B701A5019401D0
:100C90000E940A08472D461B0894C108D1084A3013
:100CA00014F4405D01C0495CF6014083E114F10495
:100CB0000105110521F07E2C5F2DC801DDCFC20199
:100CC000B6010E94F905A1960FB6F894DEBF0FBEDB
:100CD000CDBFCF91DF911F910F91FF90EF90DF90EB
:100CE000CF90BF90AF909F908F907F905F904F90EC
:100CF0000895DC012115310541F4ED91FC9101903D
:100D0000F081E02D642F099508950E94150608953D
:100D1000EF92FF920F931F939A01E62EFF2400E0BB
:100D200010E0B801A7010E9479061F910F91FF9072
:100D3000EF900895CF92DF92EF92FF920F931F935F
:100D40006C01E62E9A01FF2400E010E0B801A70133
:100D50000E9479068C01C6010E94D905080F191F4F
:100D6000C8011F910F91FF90EF90DF90CF900895F1
:100D7000CF92DF92EF92FF920F931F93CF93DF9367
:100D8000EC016A017B012115310541F4E881F9810B
:100D90000190F081E02D642F09951FC02A303105A4
:100DA000D1F477FF17C0E881F9810190F081E02D3F
:100DB0006DE209958C0144275527BA014C195D094C
:100DC0006E097F09CE012AE00E9415069801280FBE
:100DD000391F04C02AE00E9415069C01C901DF9159
:100DE000CF911F910F91FF90EF90DF90CF900895DA
:100DF000CF92DF92EF92FF920F931F936C017B01D2
:100E00009A010027F7FC0095102FB801A7010E9456
:100E1000B8068C01C6010E94D905080F191FC80128
:100E20001F910F91FF90EF90DF90CF9008950E9457
:100E3000F9050895EF92FF920F931F937C010E9492
:100E4000F9058C01C7010E94D905080F191FC801B7
:100E50001F910F91FF90EF9008951F920F920FB680
:100E60000F9211242F933F938F939F93AF93BF9330
:100E70008091C3029091C402A091C502B091C602B4
:100E80003091C7020196A11DB11D232F2D5F2D3773
:100E900020F02D570196A11DB11D2093C70280930C
:100EA000C3029093C402A093C502B093C60280917E
:100EB000BF029091C002A091C102B091C2020196FE
:100EC000A11DB11D8093BF029093C002A093C102E7
:100ED000B093C202BF91AF919F918F913F912F919B
:100EE0000F900FBE0F901F9018958FB7F894209118
:100EF000C3023091C4024091C5025091C6028FBF17
:100F0000B901CA0108959FB7F8942091BF023091AA
:100F1000C0024091C1025091C20286B5A89B06C092
:100F20008F3F21F02F5F3F4F4F4F5F4F9FBF542F99
:100F3000432F322F2227280F311D411D511D82E0E2
:100F4000220F331F441F551F8A95D1F7B901CA01DB
:100F50000895EF92FF920F931F93CF93DF937B013E
:100F60008C010E948307EB010EC00E9483076C1B5B
:100F70007D0B685E7340C8F30894E108F10801092D
:100F80001109C851DC4FE114F1040105110569F79D
:100F9000DF91CF911F910F91FF90EF90089578947A
:100FA00084B5826084BD84B5816084BD85B582606E
:100FB00085BD85B5816085BDEEE6F0E0808181600C
:100FC0008083E1E8F0E0108280818260808380810C
:100FD00081608083E0E8F0E0808181608083E1EBE4
:100FE000F0E0808184608083E0EBF0E080818160CC
:100FF0008083EAE7F0E08081846080838081826082
:10100000808380818160808380818068808310926A
:10101000C1000895629FD001739FF001829FE00D8F
:10102000F11D649FE00DF11D929FF00D839FF00D67
:10103000749FF00D659FF00D9927729FB00DE11D13
:10104000F91F639FB00DE11DF91FBD01CF011124F0
:101050000895A1E21A2EAA1BBB1BFD010DC0AA1FF9
:10106000BB1FEE1FFF1FA217B307E407F50720F011
:10107000A21BB30BE40BF50B661F771F881F991F8C
:101080001A9469F760957095809590959B01AC01D5
:10109000BD01CF010895EE0FFF1F0590F491E02DE3
:0610A0000994F894FFCF53
:1010A6006A3138353020736E6420636E743A2000DE
:1010B600496E697469616C69736174696F6E206ADF
:1010C600313835302070726F746F2E2E2E005263B9
:1010D60076205061636B65743A2000200000202D55
:1010E6002D427573204552524F522100466F756E40
:1010F60064204B65793A2000640028000000000A4D
:0C11060005AF05A004D104B104FA0400F8
:00000001FF
